:020000040800F2
:10000000F005002001010008472400088D210008A8
:1000100045240008850600087D290008000000002E
:10002000000000000000000000000000BD240008E7
:1000300019070008000000004924000805250008F1
:100040001B0100081B0100081B0100081B01000820
:100050001B0100081B0100081B0100081B01000810
:100060001B0100081B0100081B0100081B01000800
:100070001B0100081B0100081B0100081B010008F0
:100080001B0100081B010008950500081B01000862
:100090001B0100081B0100081B0100081B010008D0
:1000A0006D250008912500088525000879250008A0
:1000B0001B0100081B010008000000001B010008D4
:1000C0001B01000800000000000000001B010008E8
:1000D00000000000712900081B010008000000005A
:1000E0001B0100081B0100081B010008DFF80CD0F1
:1000F00000F02EFA00480047BD290008F005002056
:100100000648804706480047FEE7FEE7FEE7FEE7B1
:10011000FEE7FEE7FEE7FEE7FEE7FEE769250008EB
:10012000ED000008202A04DB203A21FA02F0002129
:10013000704721FA02F3D040C2F1200291400843F7
:1001400019467047D2B201E000F8012B491EFBD2DC
:1001500070470022F6E710B513460A4604461946D2
:10016000FFF7F0FF204610BDF0B480EA0102D40F83
:100170004200B2EB410F02D20246084611464A0045
:1001800042D0C30DDDB2C1F3C752AD1A202D35DA0E
:10019000C1F3160141F4000204B15242C5F1200638
:1001A00002FA06F12A411044B3EBD05F23D0C4B168
:1001B000012DA0EBC35009DCF0BC4FF0004202EA75
:1001C000C352DBB200F5000000F037B9400000F187
:1001D000807000EBC350A0F1807040EAD1704900FC
:1001E00009E0490841EAC071A0EBC35000F50000E6
:1001F000400800EBC350F0BC00F016B96142012288
:1002000002EB4101001BF6E7F0BC704781F00041B2
:10021000AAE780F00040A7E780EA010210B502F0EB
:100220000043400022D04A001FD0010E01EB1261B2
:10023000C0F35600C2F3560240F4000042F400023C
:10024000A0FB022000047F39140400D0401C50EAB7
:10025000124001D44000491EC2B20C0604EBD0107B
:10026000401C4008802A02D003E0002010BD20F08E
:100270000100002900DA0020184310BD420005D01B
:10028000C0F3C7525242914201DC0020704700EB9C
:10029000C15070472DE9FE4F81EA030404F0004489
:1002A00021F0004100944FF0000B23F0004350EA8E
:1002B00001045ED052EA03045BD0C3F30A54C1F3D5
:1002C0000A552C44A4F2F3340194A0FB0254C1F368
:1002D000130141F48011C3F3130343F4801301FBB2
:1002E000024400FB034E840A970A44EA815447EA19
:1002F0008357A4FB076802958D0A05FB07854FEA23
:10030000932C04FB0C542705029D4FEA065847EA3C
:100310001637B5EB08056EEB070C870E920E47EA11
:10032000811742EA8312A7FB0201B6EB0B0164EBD3
:1003300000042B0D43EA0C335E1844EB1C50DA46E4
:100340005146E7FB0201C5F313044FEA0B3343EABE
:1003500014534FEA0432019C43EA0603A4F10C044F
:100360000294009CCDE900B400F0A4F803B0BDE80D
:10037000F08F00200146F9E796230022114600F095
:100380005CB800F0004220F00040C10DC0F3160040
:1003900040F400007F2901DA00207047962903DC31
:1003A000C1F19601C84001E096398840002AF4D096
:1003B0004042704700F0004230F000400AD0C10DCA
:1003C00001F56071C0F3160042EA0151C20840070E
:1003D0001143704700200146704701F0004330B4DC
:1003E00021F0004150EA010206D00A0DA2F5607228
:1003F000C1F31301002A02DC30BC00207047440F17
:1004000044EAC104C100E01830BC00EBC25000F067
:100410000BB80000002801DBC0F10040002901DB1F
:10042000C1F10041884270470029A8BF7047401CB5
:10043000490008BF20F00100704710B4B0FA80FCFA
:1004400000FA0CF050EA010404BF10BC704749B137
:10045000CCF1200421FA04F411FA0CF118BF0121A7
:1004600021430843A3EB0C01CB1D4FEA00614FEA87
:10047000102042BF002010BC704700EBC350104456
:100480000029A4BF10BC7047401C490008BF20F0E1
:10049000010010BC704710B5141E73F1000408DA97
:1004A000401C41F1000192185B411A4301D120F038
:1004B000010010BD2DE9F04D92469B4611B1B1FAF5
:1004C00081F202E0B0FA80F22032904600F052F859
:1004D00004460F4640EA0A0041EA0B0153465A46D9
:1004E000084313D0114653EA010019D0C8F1400265
:1004F0005046FFF717FE05460E46504659464246FF
:1005000000F038F8084305D0012004E020463946C1
:10051000BDE8F08D0020054346EAE0762C433743E2
:100520000A986305E40AA0EB08000022FD0A44EAE9
:1005300047540A3002D500200146E9E701051019A9
:100540006941DDE9084500196941BDE8F04DA2E7C0
:10055000064C074D06E0E06840F0010394E8070010
:1005600098471034AC42F6D3FFF7C4FD902A000838
:10057000B02A0008202A04DB203A00FA02F1002009
:1005800070479140C2F1200320FA03F319439040D1
:100590007047000010B5044800F0F7F9BDE81040BE
:1005A000024800F0F2B90000B8000020E800002086
:1005B00070B5044600688168C943C90717D18168CE
:1005C00021F00101816000F0EBFC05460AE000BF6C
:1005D00000F0E6FC401B022804D920688068C04374
:1005E000C00706D020688068C043C007F0D0002054
:1005F00070BDA06A40F01000A062E06A40F0010007
:10060000E062012070BD0000F8B5002604460096A7
:1006100000688168C943C9072DD0816841F0010194
:100620008160164816490068B0FBF1F000E0401EFA
:1006300000900028FBD100F0B3FC054616E000BF97
:1006400000F0AEFC401B022810D920688068C0432F
:10065000C0070BD0A06A40F01000A062E06A40F032
:100660000100E06284F824600120F8BD2068806801
:10067000C043C007E4D10020F8BD0000B400002052
:1006800040420F00FEE72DE9F0410446C6690D46E1
:10069000C4E907160068FFF7BFFD07462846314644
:1006A000FFF7B4FDA168FFF7B7FD06462946A0692C
:1006B000FFF75AFDA061E068394680F00040FFF77F
:1006C000A9FE03D2E06880F0004705E03846E16803
:1006D000FFF7A0FE00D2E7686069314680F0004075
:1006E000FFF798FE03D2606980F0004605E03046CF
:1006F0006169FFF78FFE00D266696168A069FFF744
:100700008BFD054631463846FFF72EFD2946FFF79B
:100710002BFD6062BDE8F08170477047F8B5002599
:100720000446009590F82400012808D0012084F8A0
:1007300024002046FFF73CFF060002D053E00220D1
:10074000F8BDA06A20F4885040F00200A0620220A8
:1007500000F0C4FC26490968B1FBF0F0400000E05D
:10076000401E00900028FBD12046FFF74DFF206877
:10077000816841F00801816000F012FC074608E042
:1007800000F00EFCC01B0A2803D92068806800070F
:1007900015D4206880680007F2D42068816841F091
:1007A0000401816000F0FCFB074612E000F0F8FB5A
:1007B000C01B0A280DD920688068400709D5A06AA7
:1007C00020F0020040F01000A06284F824500120C4
:1007D000F8BD206880684007E8D4A06A20F00200D5
:1007E00040F00100A06284F824503046F8BD0000BB
:1007F000B400002070470000F8B50024009490F881
:1008000024202546012A12D0012280F824204A689B
:100810001F23072A0DD20668776B521E02EB820255
:1008200093409F430B6893401F43776319E0022076
:10083000F8BD06680D2A0AD2376BD21F02EB82027E
:1008400093409F430B6893401F43376309E0F76A67
:100850000D3A02EB820293409F430B6893401F4383
:10086000F7620A68072306680A2A0AD3F7680A3A71
:1008700002EB420293409F438B6893401F43F76013
:1008800008E0376902EB420293409F438B68934034
:100890001F4337610A68102A01D0112A20D1124B58
:1008A00002689A4217D193681B0219D4936843F4E3
:1008B000000393600968102912D10C490C4A096899
:1008C000B1FBF2F101EB8101490000E0491E00910A
:1008D0000029FBD104E0816A41F0200181620124FA
:1008E00080F824502046F8BD00240140B4000020C8
:1008F00040420F002DE9F0411E4904460068096896
:10090000DFF874801D4D6FF00B064FF0663788429C
:1009100013D1184800F036F8FFF72EFD3146FFF7E7
:10092000ADFCFFF747FD3A464346FFF7B3FCFFF740
:1009300054FDA8600F4800F077F911492068096854
:10094000884215D10E4800F01DF8FFF715FD31461D
:10095000FFF794FCFFF72EFD3A464346FFF79AFC5B
:10096000FFF73BFD6860BDE8F041054800F05CB969
:10097000BDE8F081B800002066660A400000002053
:10098000E80000200068C06C704710B5044600689D
:100990004168890626D50168890723D5A16AC90659
:1009A00003D4A16A41F40071A1628168C1F342419C
:1009B000072910D1217B71B9416821F020014160E4
:1009C000A06A20F48070A062A06AC00403D4A06A68
:1009D00040F00100A0622046FFF78CFF21686FF015
:1009E000120008602068416809062ED50168490791
:1009F0002BD5A16AC90603D4A16A41F40051A162B2
:100A00008168C1F30231072909D04168490515D42D
:100A10008168C1F34241072910D1217B71B9416836
:100A200021F080014160A06A20F48050A062A06A99
:100A3000C00503D4A06A40F00100A0622046FFF781
:100A4000D9FE21686FF00C000860206841684906F3
:100A50000DD50068C0070AD0A06A40F48030A062BB
:100A6000204600F093F821686FF00100086010BD87
:100A70002DE9F0414FF0000704003D467ED0A06A0A
:100A8000002628B9E66284F82460204600F080F849
:100A90002046FFF78DFDA16AC90600D420B1A06AE7
:100AA00040F01000A06269E0A16A21F4885141F091
:100AB0000201A1626268E169237B0A4347EA4301BC
:100AC0000A43A1684FF48077B94209D0012907D0C1
:100AD0005FF0000194F814C0BCF1010F02D00AE0ED
:100AE0003946F7E7F3B1A36A43F02003A362E36A50
:100AF00043F00103E3622368D3F804C02CF4694C8B
:100B00004CEA010CC3F804C021688B68DFF870C0A0
:100B100003EA0C0313438B60A168B9420BD001298F
:100B200009D00CE0DFF85CC0A3690CEB43330B4346
:100B300043F40061DFE7218A0D05A5F580152168E2
:100B4000CB6A23F470032B43CB62216889680E4B78
:100B50001940914208D1E662A16A21F0020141F0F8
:100B60000101A162BDE8F081A06A20F0020040F01E
:100B70001000A062E06A40F00100E0620120F1E7AD
:100B8000FDF7E1FF00E0FFFFFE0E1FFF70470000D2
:100B900010B586B0002100910191029103911E4C85
:100BA00003681E4903221E48A34211D18B6943F4F6
:100BB00000738B618B6903F4007304938B6943F0BA
:100BC00004038B61896901F004010491022113E09F
:100BD000144CA3421DD18B6943F480638B618B69F4
:100BE00003F4806304938B6943F004038B61896988
:100BF00001F0040104910421CDE90012694600F0DE
:100C0000E9F800221146122000F036FA122000F016
:100C100025FA06B010BD000000240140001002407B
:100C2000000801400028014070B5044690F82400F7
:100C300001280DD0012084F824002046FFF7E4FCB1
:100C400002004FF0000005D084F82400104670BD6B
:100C5000022070BDA16A40F60163994341F480719E
:100C6000A162224D23682249AB4218D10E6816F4C6
:100C7000702F14D0A66A46F48016A6620E68760518
:100C800005D5A66A26F4005646F48056A662A66AE2
:100C9000F6040AD5E66A26F00606E66206E0A66ACB
:100CA00026F48016A6625E68E9E7E06284F8240014
:100CB0006FF0020018602068436843F0200343602F
:100CC00020688368C3F34243072B05D1A84208D1AB
:100CD000096811F4702F04D0816841F4801181609B
:100CE000B4E7816841F4A001F9E700000028014061
:100CF0000424014010B590F821100022022905D0EB
:100D00000421816380F82020012010BD01680B6858
:100D100023F00E030B6001680B6823F001030B60E6
:100D200090F84030C46B012101FA03F3636080F84E
:100D3000211080F82020104610BD000010B590F85A
:100D400021100024022903D00421816301243DE005
:100D500001680A6822F00E020A6001680A6822F03F
:100D600001020A601A4A0168914201D1012121E081
:100D7000174A1432914201D110211BE0144A283243
:100D8000914201D1891515E0114A3C32914201D1BD
:100D900089140FE00E4A5032914202D14FF4803153
:100DA00008E00B4A6432914202D14FF4801101E015
:100DB0004FF08071064A083A5160012180F82110F5
:100DC000002180F82010416B01B18847204610BDFA
:100DD000080002402DE9F84FDFF89C91002409F14A
:100DE000040A0AF1040B23460F270BF1040EBBE0A3
:100DF0000125A5402A40AA4276D1DFF880C14E687D
:100E0000A6EB0C0866452BD00DDC032E34D005DC98
:100E100036B3012E19D0022E2FD11BE0112E16D081
:100E2000122E2AD119E0B8F5881F19D006DCB8F5C2
:100E3000803F15D0B8F5801F1FD111E0B8F5001F15
:100E40000ED0B8F5041F18D10AE0CB6815E0CB68C6
:100E50001B1D12E0CB6808330FE0CB680C330CE0AD
:100E60008B682BB1012B4FF0080303D0456104E0E0
:100E7000042302E0056100E00023FF2A01D80646B2
:100E800001E000F104064FEA840501D9A5F120052F
:100E9000D6F8008007FA05FC28EA0C0803FA05F5E5
:100EA00048EA0508C6F800804D68ED005BD5344D72
:100EB000AE6946F00106AE61AD6924F0030605F0A7
:100EC000010500952F4D06EB050CDCF80850A60730
:100ED000360F07FA06F825EA0805DFF8AC8040452A
:100EE00003D14FF0000810E03DE0DFF8A08040455E
:100EF00002D14FF0010808E0DFF89480404502D1AC
:100F00004FF0020801E04FF0030808FA06F848EA3B
:100F10000508CCF808804D68D9F80060ED034D460F
:100F200001D5164300E096432E604D68DAF8006064
:100F3000AD03554601D5164300E096432E604D683B
:100F4000DBF80060ED025D4601D5164300E09643F4
:100F50002E604D68DEF80060AD02754601D516437F
:100F600000E096432E60641C0A6832FA04F57FF4B0
:100F70003FAFBDE8F88F00000004014000001110F1
:100F8000001002400000014000080140000C014038
:100F9000001001400AB1016170470904FBE700003D
:100FA0000148806870470000A8000020024881685E
:100FB0000278114481607047A8000020074810B5EE
:100FC000016841F010010160032000F075F8002075
:100FD00000F006F800F024F8002010BD00200240C8
:100FE00070B50D4D04464FF47A712878B1FBF0F0DE
:100FF0000A490968B1FBF0F000F0C6FB48B9102CB3
:1010000007D200222146501E00F036F800206C6006
:1010100070BD012070BD0000A8000020B4000020B9
:101020000C4808B5816941F001018161816901F0D5
:1010300001010091C16941F08051C161C06900F0B6
:10104000805000900448416821F0E06141F0007157
:10105000416008BD0010024000000140002809DB8B
:1010600000F01F02012191404009800000F1E020C2
:10107000C0F8001170470000F0B40E4B1B680C461E
:10108000C3F30223C3F10705042D00D90425191D5C
:10109000072901D2002300E0DB1E012606FA05F134
:1010A000491E214099409E40761E16403143F0BCB7
:1010B00001F065BC0CED00E0064900F0070208688D
:1010C0004FF6FF03184040EA0220034A104308602D
:1010D000704700000CED00E00000FA0510B529A4EF
:1010E00001461DCC86B08DE81D002AA02A4C006860
:1010F00004900020012923D002293AD010291DD1C3
:1011000061682268D20119D5C1F38342C9031DF871
:10111000020009D5616804AAC1F34041515C1F4A2D
:10112000B2FBF1F1484301E01D49484361684902BF
:1011300004D440005FF00301B0FBF1F006B010BD35
:10114000226AC2F30121012903D1920701D5C80304
:10115000F4E7022905D1626A920702D549F64040B8
:10116000ECE70329EAD121688903E7D54FF224404F
:10117000E4E700F033F96168C1F38131491C4900AB
:10118000DAE7000002030405060708090A0B0C0D44
:101190000E0F1010010200000010024000127A0031
:1011A00000093D002DE9F84305460078354CC0079D
:1011B00054D0E0690026C00008D4E06940F08050B7
:1011C000E061E069012600F0805000902E4801683F
:1011D000C90512D40168804641F480710160FFF7AF
:1011E000DFFE074605E000BFFFF7DAFEC01B6428FC
:1011F00023D8D8F80000C005F6D5206A10F4407056
:1012000021D0A98801F4407181421CD0206A1F4975
:10121000012220F440700A6000220A602062C007A8
:1012200011D0FFF7BDFE074641F2883808E000BF45
:10123000FFF7B6FEC11B414502D90320BDE8F88384
:10124000206A8007F4D5206A696820F4407008435A
:1012500020621EB1E06920F08050E06128788007AC
:1012600005D56068A96820F440400843606028788C
:10127000C00605D56068E96820F480000843606016
:101280000020DBE7001002400070004040044242B2
:101290002DE9F0470F46050061D0434E306800F05D
:1012A0000700B84209D2306820F0070038433060A8
:1012B000306800F00700B84251D128683B4C8107E4
:1012C00012D5400703D5606840F4E060606028787C
:1012D000000703D5606840F4605060606068A968EA
:1012E00020F0F000084360602878C00728D06868C4
:1012F000012810D02168022810D0890700292EDA91
:10130000616821F0030101436160FFF749FE8046F7
:1013100041F288390DE021688903EFE78901EDE7A3
:10132000FFF73EFEA0EB0801494502D90320BDE8C6
:10133000F0876068696800F00C00B0EB810FEFD1B6
:10134000306800F00700B8420BD9306820F0070081
:1013500038433060306800F00700B84201D0012007
:10136000E5E72878400705D56068E96820F4E06083
:10137000084360602878000706D56068296920F472
:10138000605040EAC100606000F038F86168084AC7
:10139000C1F30311515CC840064908600648006863
:1013A000FFF71EFE0020C2E70020024000100240AE
:1013B000782A0008B4000020AC0000200448054949
:1013C00000684968044AC1F30221515CC840704773
:1013D000B400002000100240882A00080448054993
:1013E00000684968044AC1F3C221515CC840704793
:1013F000B400002000100240882A000812A185B025
:101400000FC98DE80F0014A0144A006804905168B9
:10141000134801F00C03042B10D0082B0ED1C1F39C
:101420008343C9031DF803000AD5516804AAC1F318
:101430004041515C0A4A5043B0FBF1F005B070479F
:1014400008494843FAE700000203040506070809B3
:101450000A0B0C0D0E0F10100102000000100240CC
:1014600000127A0000093D002DE9F84F040070D009
:101470002078C04DC00749D06868C0F381000128BA
:1014800007D06868C0F38100022809D16868C003EA
:1014900006D52868800339D560680028E7D035E094
:1014A0006068B0F5803F0BD010B1B0F5A02F11D01F
:1014B000286820F480302860286820F4802002E02A
:1014C000286840F480302860606890B1FFF768FDBC
:1014D00006460AE0286840F480202860F0E700BF54
:1014E000FFF75EFD801B642873D828688003F7D55A
:1014F0000CE0FFF755FD064605E000BFFFF750FD85
:10150000801B6428F0D828688003F7D420789A4E8E
:1015100080074FF001094FF0000839D5686810F0D6
:101520000C0F07D06868C0F38100022809D16868F1
:10153000C00306D42868800714D52069012808D183
:1015400010E02069B0B1C6F80090FFF729FD07460A
:1015500005E00AE1FFF724FDC01B0228C4D8286873
:101560008007F7D52868616920F0F80040EAC100DB
:1015700028600DE0C6F80080FFF712FD074604E082
:10158000FFF70EFDC01B022823D828688007F7D478
:10159000207800072CD57948A169D9B1C0F800900E
:1015A000FFF7FEFC074604E0FFF7FAFCC01B022829
:1015B0000FD8686A8007F7D571484FF4FA51006870
:1015C000B0FBF1F0009000BF0098411E0091FAD2EC
:1015D0000EE080E0C0F80080FFF7E2FC074604E080
:1015E000FFF7DEFCC01B022875D8686A8007F7D4B5
:1015F0002078400760D5E8690027C00008D4E86972
:1016000040F08050E861E869012700F080500090C8
:101610005C480168C90513D40168834641F48071B0
:101620000160FFF7BDFC824606E000BFFFF7B8FC93
:10163000A0EB0A0064284ED8DBF80000C005F5D501
:10164000E06801280AD008B1052813D0286A20F0E4
:1016500001002862286A20F0040002E0286A40F0B5
:1016600001002862E06841F2883B98B1FFF798FCDE
:1016700082460BE0286A40F004002862EEE700BFD3
:10168000FFF78EFCA0EB0A0159455AD8286A80075B
:10169000F6D50CE0FFF784FC824605E0FFF780FCFE
:1016A000A0EB0A0159454CD8286A8007F6D41FB12F
:1016B000E86920F08050E861E06988B36968C1F3A7
:1016C0008101022944D00228C6F8608004D0FFF7C7
:1016D00067FC044638E034E0FFF762FC074604E0AC
:1016E000FFF75EFCC01B02282BD828688001F7D4C6
:1016F000206AB0F5803F05D16868A16820F4003009
:1017000008436860D4E908010843696821F474114A
:1017100008436860C6F86090FFF742FC044606E0A4
:1017200025E000BFFFF73CFC001B022809D8286811
:101730008001F7D51BE000BFFFF732FC001B022839
:1017400002D90320BDE8F88F28688001F4D40EE0A8
:101750000128F7D06868226A00F48031914204D1F0
:10176000616A00F47010884201D00120EAE700208D
:10177000E8E70000001002400000424280044242BC
:10178000B40000200070004010B5401EB0F1807F12
:1017900001D3012010BD4FF0E02460610F216017DC
:1017A00001F0EDF80020A06107202061002010BDAD
:1017B0007047704770B590F83C20012A23D001246F
:1017C00080F83C40022280F83D2003685A689D68FA
:1017D00022F070060A6832435A600C4B02689A4243
:1017E00005D0B2F1804F02D0094B9A4204D149682A
:1017F00025F080031943916080F83D40002180F876
:101800003C10084670BD022070BD0000002C014055
:101810000004004010B5040003D094F83D0010B15E
:1018200007E0012010BD002084F83C00204600F0B5
:101830001FF8022084F83D00211D206800F0AEFE54
:10184000012084F8460084F83E0084F83F0084F8C4
:10185000400084F8410084F8420084F8430084F892
:10186000440084F8450084F83D00002010BD0000CD
:1018700008B50068174988422AD11748816941F4A0
:10188000006181618069002200F4006000901146CF
:101890001820FFF7F1FB1820FFF7E0FB00221146AC
:1018A0001920FFF7E9FB1920FFF7D8FB00221146AA
:1018B0001A20FFF7E1FB1A20FFF7D0FB00221146A8
:1018C0001B20FFF7D9FBBDE808401B20FFF7C6BB74
:1018D00008BD0000002C01400010024090F83D10AF
:1018E000012901D001207047022180F83D100068D5
:1018F0000949884205D0B0F1804F02D0074988429B
:1019000004D1816801F00701062903D0016841F084
:101910000101016000207047002C014000040040DC
:1019200090F83D10012901D001207047022180F874
:101930003D100168CA6842F00102CA6000680A49A5
:10194000884205D0B0F1804F02D00849884204D1C6
:10195000816801F00701062903D0016841F0010107
:101960000160002070470000002C0140000400408E
:1019700070B5044690F83C00012817D0012584F882
:101980003C50022084F83D002068826822F07702F3
:1019900022F47F4282600868502830D00DDC202875
:1019A0004DD005DC98B310283BD148E0022070BD33
:1019B000302844D0402834D139E0602828D070281D
:1019C00006D0B0F5805F2CD0B0F5005F29D10AE0D9
:1019D000CB68D1E90121206800F01BFE20688168F6
:1019E00041F0770109E0CB68D1E90121206800F0DE
:1019F00010FE2068816841F48041816011E0CA686E
:101A00004968206800F0BAFE5021206807E016E01F
:101A1000CA684968206800F0C2FE6021206800F0B2
:101A200002FE84F83D50002084F83C0070BDCA6876
:101A30004968206800F0A2FE40212068EFE7226894
:101A400001461046EBE7704770B50446006801692F
:101A50004FF00005C943890715D4C168C9438907F8
:101A600011D4E91E01610120207720688069800778
:101A7000204602D0FFF7E7FF04E000F0D1F820464F
:101A800000F074F9257720680169C943490717D424
:101A9000C168C943490713D46FF0040101610220F2
:101AA00020772068806910F4407F204602D0FFF73D
:101AB000CAFF04E000F0B4F8204600F057F925779B
:101AC00020680169C943090716D4C168C9430907D9
:101AD00012D46FF008010161042020772068C069EA
:101AE0008007204602D0FFF7AEFF04E000F098F830
:101AF000204600F03BF9257720680169C943C906F3
:101B000017D4C168C943C90613D46FF0100101612D
:101B1000082020772068C06910F4407F204602D05A
:101B2000FFF791FF04E000F07BF8204600F01EF97B
:101B3000257720680169C943C90708D1C168C9432D
:101B4000C90704D1891E0161204600F05BF92068B5
:101B50000169C943090609D4C168C943090605D406
:101B60006FF0800101612046FFF722FE20680169C5
:101B7000C943490609D4C168C943490605D46FF071
:101B800040010161204600F055F920680169C94310
:101B900089060BD4C168C943890607D46FF02001B8
:101BA00001612046BDE87040FFF703BE70BD000034
:101BB00010B586B000210091019102910391006857
:101BC0001349884221D11348816941F004018161A0
:101BD000816901F004010491816941F0080181618A
:101BE0008069022400F008000490C020CDE90004C0
:101BF000694609480394FFF7EDF80320CDE9000496
:101C0000694606480394FFF7E5F806B010BD0000EA
:101C1000000400400010024000080140000C014098
:101C2000704770B5044690F83C000D4601280AD074
:101C3000012084F83C0042B1042A18D0082A2AD096
:101C40000C2A4DD139E0022070BD206800F0F4FC70
:101C50002068816941F0080181612068816921F073
:101C600004018161206881692A69114311E02068BB
:101C700000F00AFD2068816941F4006181612068FB
:101C8000816921F480618161206881692A6941EA62
:101C90000221816124E0206800F022FD2068C169F2
:101CA00041F00801C1612068C16921F00401C161EE
:101CB0002068C1692A69114311E0206800F03CFDE9
:101CC0002068C16941F40061C1612068C16921F4E3
:101CD0008061C1612068C1692A6941EA0221C1614C
:101CE000002084F83C0070BD10B5040003D094F8C7
:101CF0003D0010B107E0012010BD002084F83C0039
:101D0000204600F01FF8022084F83D00211D2068C5
:101D100000F044FC012084F8460084F83E0084F87A
:101D20003F0084F8400084F8410084F8420084F8C1
:101D3000430084F8440084F8450084F83D00002006
:101D400010BD000008B500680649884208D1064861
:101D5000C16941F00201C161C06900F00200009058
:101D600008BD000000040040001002407047000061
:101D700010B50446022249B104290ED0082913D017
:101D800094F84100012816D0012010BD94F83E00BF
:101D90000128F9D184F83E200FE094F83F00012893
:101DA000F2D184F83F2008E094F840000128EBD1FC
:101DB00084F8402001E084F841200122206800F0EE
:101DC0001BFC0E492068884203D1426C42F4004259
:101DD00042642068884205D0B0F1804F02D00849A3
:101DE000884204D1816801F00701062903D0016807
:101DF00041F001010160002010BD0000002C0140F5
:101E00000004004010B509490068096888420CD1F7
:101E1000074C04F11000A16800F018FB04F1480021
:101E20006168BDE8104000F011BB10BD1801002032
:101E3000000000207047704770470000F8B5026846
:101E400004461068D168536910F00F0F4FF0000579
:101E500053D003F0010601F4907737435FD0C207F7
:101E600005D0CA0503D5226C42F001022264420764
:101E700005D5DA0703D0226C42F002022264820701
:101E800005D5DA0703D0226C42F00402226402076F
:101E900007D501F02002324303D0226C42F0080241
:101EA0002264226C002A34D0800604D5880602D52C
:101EB000204600F0A6FC20684069216CC0F3801029
:101EC000090700D430B3204600F083FC2068416944
:101ED00049061BD5416921F040014161A06BA8B1C1
:101EE00058494163A06BFEF729FF002811D0A06B71
:101EF000416B01B0BDE8F040084783060FD58B0663
:101F00000DD52046BDE8F84000F07BBC2046FFF729
:101F100093FFF8BD2046FFF78FFF2564F8BD266BC1
:101F20002023012E52D1C60650D5CE064ED51068BC
:101F300050680090506940062AD5A16B0868406837
:101F40000004000CEAD0A68D8642E7D9E0858869B6
:101F5000202818D0D06820F48070D06020684169B3
:101F600021F0010141612068416921F04001416196
:101F700084F83E3025632068C16821F01001C160FB
:101F8000A06BFEF7B7FEA08DE18D401A81B219E07B
:101F9000A08DE18D401A81B2E08D0028BED00029CD
:101FA000BCD0D06820F49070D0602068426922F0E4
:101FB0000102426184F83E3025632068C26822F045
:101FC0001002C2602046FFF736FFF8BD05062BD58C
:101FD0000D0629D594F83D002128F6D1A068B0F56A
:101FE000805F01D12069B0B1206A411C2162216863
:101FF00000784860E08C401E0004000CE084E4D1CE
:102000002068C16821F08001C1602068C16841F08A
:102010004001C160F8BD206A0088C0F3080050602C
:10202000206A801C2062E5E74006F3D54806F1D51A
:10203000D168204621F04001D16084F83D3000F0A5
:10204000A4F8F8BDC327000870B5040004D094F8C4
:102050003D00002510B106E0012070BD84F83C5021
:10206000204600F023F8242084F83D002068C16851
:1020700021F40051C160204600F01EFC2068016977
:1020800021F4904101612068416921F02A014161F8
:102090002068C16841F40051C1602564202084F8A3
:1020A0003D0084F83E00002070BD000030B585B0D2
:1020B0000024009401940294039400681849884213
:1020C0002CD11848816941F480418161816901F412
:1020D00080410491816941F0040181618069124D60
:1020E00000F0040004904FF4007000900220019072
:1020F0000320039069462846FEF76CFE2815CDE9BB
:102100000004694628460294FEF764FE0022114648
:102110002520FEF7B1FF2520FEF7A0FF05B030BD5A
:1021200000380140001002400008014005490068E5
:102130000968884204D1032203A1024800F006B8CE
:1021400070470000A80100204F4B000090F83D3080
:10215000202B18D1A9B1A2B190F83C30012B12D09C
:1021600001628284C28400210164212280F83D2022
:1021700080F83C100068C16841F08001C160002017
:10218000704701207047022070477047FEE700004B
:102190003EB500211148009101910F4A0291026061
:1021A00081600173017501244FF460220461C261F2
:1021B0004160FEF75DFC08B1FEF7AFFA072000941E
:1021C000CDE9014069460548FEF716FB002801D01D
:1021D000FEF7A3FA3EBD000000240140B800002035
:1021E0003EB500211148009101910F4A0291026011
:1021F00081600173017501244FF460220461C261A2
:102200004160FEF735FC08B1FEF787FA0220CDE900
:1022100000040720029069460448FEF7EDFA002802
:1022200001D0FEF77AFA3EBD00280140E800002008
:1022300070B586B000242048009401940294039461
:10224000816941F010018161816901F010010491FF
:10225000816941F020018161816901F020010491CF
:10226000816941F004018161816901F004010491F7
:10227000816941F0080181618069104E00F0080019
:102280004FF400550490002229463046FEF782FEA6
:1022900001200095CDE901040220039069463046F3
:1022A000FEF798FD0620009003200190694604483F
:1022B000FEF790FD06B070BD001002400010014016
:1022C0000008014010B586B000241748009401941E
:1022D0000294039404941349059401601121C0E908
:1022E00001140921C0E9031444618461FFF792FAE3
:1022F00008B1FEF712FA4FF48050009069460A4880
:10230000FFF736FB08B1FEF708FA049404A9064863
:102310000594FFF74FFA002801D0FEF7FEF906B04A
:1023200010BD0000002C01401801002010B58AB03B
:10233000002407941C2168460894FDF70AFF2248F0
:10234000204901604721C0E9011440F2E731C0E9AA
:1023500003148461FFF7C8FC08B1FEF7DEF90794A7
:1023600007A919480894FFF725FA08B1FEF7D5F92F
:102370006020CDE9000402940022694612480494CA
:10238000FFF74FFC08B1FEF7C8F9042269460E4872
:10239000FFF747FC08B1FEF7C0F9082269460A4872
:1023A000FFF73FFC08B1FEF7B8F90C226946064872
:1023B000FFF737FC08B1FEF7B0F90348FFF7F8FB69
:1023C0000AB010BD00040040600100200C4810B5A8
:1023D0000A4901604FF416514160002181600C22CE
:1023E000C160C0E904128161C161FFF72DFE0028C0
:1023F00003D0BDE81040FEF790B910BD0038014091
:10240000A801002070B50E48016B3838006BFDF74D
:10241000FDFE0B494839C860014609483830FEF7CF
:1024200032F90446FDF7ADFF05B284F00040FDF738
:10243000A8FF2946BDE8704000B200F041B8000096
:1024400048000020FEE770477047000070B5044662
:1024500090F8340044F8201094F83400401CC0B2C6
:1024600084F834000A2825D15FF00005A06A54F8EA
:102470002510FDF7CFFF01D2A06A01E054F8250036
:10248000A06254F82510E06AFDF7C4FF02D254F8A8
:10249000250000E0E06A6D1CE0620A2DE6DB0146E3
:1024A000A06AFDF7B3FE2063002084F83400A06228
:1024B0000148E06270BD00003333534070470000B4
:1024C0000F4A10B500231468002803DD606310680C
:1024D000836305E06363FAD01468C0F10000A06371
:1024E000002904DD1068C1631068036410BD106822
:1024F000C363F9D0C1F100001168086410BD000089
:1025000060010020FEF752BD30B593B02821684627
:10251000FDF71FFE14210AA8FDF71BFE0024012071
:102520000F9410941194010412948DE813000490F8
:102530004FF4E010CDE90810022507956846FEF734
:1025400093FF0F20CDE90A056802CDE90C40022176
:102550000AA80E94FEF79CFEA80311900F950FA8F1
:10256000FEF720FE13B030BD704700000148FFF7B2
:102570006BBA0000180100200148FFF765BA00009F
:10258000180100200148FFF75FBA00001801002081
:102590000148FFF759BA00001801002070B5026821
:1025A000134B144C4FF08046984203D0B04201D0F8
:1025B000A04203D122F070054A682A43984203D012
:1025C000B04201D0A04203D122F44074CA68224331
:1025D0004C6922F08002224302608A68C2620A6863
:1025E0008262984201D1096901630121416170BD94
:1025F000002C01400004004010B501F01F03012130
:10260000046A99408C430462016A9A401143016252
:1026100010BD10B5846842EA032224F47F440A43C3
:102620002243826010BD826822F070020A4342F0A9
:10263000070181607047000030B5026A22F0010294
:102640000262026A4368846924F073050C682C43B3
:1026500022F002058A682A430A4DA8420BD122F0D3
:102660000805CA6823F440732A434D6922F0040226
:102670001D438B692B434360846149684163026257
:1026800030BD0000002C014030B5026A22F010027B
:102690000262026A436884690D6824F4E64444EAED
:1026A00005248D6822F0200242EA05120B4DA84253
:1026B0000ED1CD6822F0800242EA05124D6923F462
:1026C000406343EA85038D6922F0400243EA8503B3
:1026D0004360846149688163026230BD002C01401F
:1026E00030B5026A22F480720262036A4268C469E9
:1026F00023F4007324F073050C682C438D6843EABF
:1027000005230C4DA8420ED1CD6823F4006343EAA3
:1027100005234D6922F4405242EA05128D6923F4E3
:10272000806342EA05124260C4614968C163036282
:1027300030BD0000002C014030B5026A22F4805206
:102740000262046A4268C3690D6823F4E64343EAFF
:1027500005238D6824F4005444EA0534064DA8424C
:1027600004D14D6922F4804242EA85124260C3617D
:1027700049680164046230BD002C014010B5036A51
:10278000046A24F001040462846924F0F00444EA39
:10279000021423F00A020A438461026210BD10B5DC
:1027A000036A23F0100303628369046A23F470430D
:1027B00043EA023224F0A00343EA0111826101627C
:1027C00010BD10B5406A0021C185C184FFF734FBFC
:1027D00010BD0168CA6822F49072CA6001684A6933
:1027E00022F001024A61016B012904D10168CA6823
:1027F00022F01002CA60202180F83E1000210163FF
:10280000704708B590F83E10222901D0022008BD7B
:1028100082684FF480539A4201D1016921B1816AE3
:102820009A421BD04AB10AE00268816A5268C2F338
:1028300008020A80816A891C08E0026972B1026894
:10284000526802F07F020A70816A491C8162C18D60
:10285000491E0904090CC18503D019E002685268B9
:10286000F1E70168CA6822F02002CA600168CA68FC
:1028700022F48072CA6001684A6922F001024A614A
:10288000202180F83E10016B012903D0FFF74EFC98
:10289000002008BD002101630168CA6822F010020F
:1028A000CA6001680A68D20602D50A6849680091C0
:1028B000818DFFF7C0FAEBE770B504460068016947
:1028C000E26821F44051114301612169A068084385
:1028D000616908432168CA6841F20C639A43024364
:1028E000CA6020684169A26921F4407111434161C5
:1028F0001E492068884202D1FEF770FD01E0FEF714
:102900005DFD00EBC00101EB0012606864218000F6
:10291000B2FBF0F3B3FBF1F36FF018067343B2FBB5
:10292000F0F5B2FBF0F605EB8305322303EB05155A
:10293000B5FBF1F5B6FBF1F605F0F00505EB061574
:10294000B2FBF0F6B2FBF0F0B0FBF1F06FF0180262
:10295000504306EB800003EB0010B0FBF1F0216860
:1029600000F00F002844886070BD0000003801406E
:102970000148FFF763BA0000A8010020FEE709073D
:10298000090E002804DB00F1E02080F800147047F5
:1029900000F00F0000F1E02080F8141D704702E005
:1029A00008C8121F08C1002AFAD1704770470020DA
:1029B00001E001C1121F002AFBD17047FEF7FEFAA9
:1029C000FFF7A2FDFFF734FCFFF77CFCFFF7E0FB0D
:1029D000FFF7FCFCFFF704FCFFF7A8FC0A221DA18F
:1029E0001F48FFF7B3FB1F48FEF778FF00211D4883
:1029F000FFF7BEF904211B48FFF7BAF9082119486F
:102A0000FFF7B6F90C211748FFF7B2F91648FDF7A2
:102A100085FE1648FDF782FE1548FEF781FF124835
:102A2000FEF702F91148FEF7FFF8124CFFF7EAFC37
:102A300020786E2808D04E2806D0792801D0592851
:102A4000F4D1FFF7DFFCF1E700210846FFF738FD7E
:102A5000ECE70000506F776572204F6E0A000000AF
:102A6000A801002060010020B8000020E80000203C
:102A700018010020000000200000000000000000FD
:102A80000102030406070809000000000102030414
:102A9000B02A000800000020B80000009E290008AD
:102AA000682B0008B800002038050000AE29000897
:102AB0000000000000000000000000000000000016
:102AC0000000000000000000000000000000000006
:102AD00000000000000000000000000000000000F6
:102AE00000000000000000000000000033335340ED
:102AF00000000000000000000000000000000000D6
:102B000000000000000000000000000000000000C5
:102B100000000000000000000000000000000000B5
:102B200000000000333353400000000000000000AC
:102B300000006144000000000000C84200002F4473
:102B4000000000000000164400000000000000002B
:102B50000000000000000000010000001000000064
:082B6000000000000024F40055
:04000005080000ED02
:00000001FF
